:100000000C9434000C9451000C9451000C94510049
:100010000C9451000C9451000C9451000C9451001C
:100020000C9451000C9451000C9451000C9451000C
:100030000C9451000C9451000C94C6040C94510083
:100040000C9451000C9451000C949E040C9451009B
:100050000C9451000C9451000C9451000C945100DC
:100060000C9451000C94510011241FBECFEFD8E026
:10007000DEBFCDBF11E0A0E0B1E0E4E1F3E102C0FA
:1000800005900D92AA36B107D9F722E0AAE6B1E0B1
:1000900001C01D92AB34B207E1F70E94E3020C9459
:1000A00082090C9400008F929F92AF92BF92CF92E0
:1000B000DF92EF92FF92362FC0908C01D0908D018D
:1000C000E0908E01F0908F0120916A0140916B01C8
:1000D00050916C0160916D0170916E014C195D0938
:1000E0006E097F09A4E02A9FF0011124E80FF91F8F
:1000F00080809180A280B38084169506A606B706FC
:1001000010F520FF29C0439A20916A012F5F231721
:1001100029F1322F30936A01E4E02E9F90011124DF
:10012000820F931FFC0180819181A281B3818C0D8C
:100130009D1DAE1DBF1D80936B0190936C01A0931C
:100140006D01B0936E01FF90EF90DF90CF90BF9064
:10015000AF909F908F9008954398D6CF20E030E0E5
:10016000D9CFFC01A081B1813C912281838194810E
:10017000880F991F322341E0311101C040E0842BE8
:10018000906E838394838115904F11F481E087836F
:100190003C9185819681880F991F232341E021118D
:1001A00040E0842B906E858396838115904F11F4E7
:1001B00081E08087089508952A98811569F080E983
:1001C0007F70782B7EBD0DB407FEFDCF6EBD0DB4E4
:1001D00007FEFDCF2A9A089580E1F2CF29989F70FB
:1001E00090619EBD0DB407FEFDCF8EBD0DB407FE20
:1001F000FDCF299A08952898289A08950F931F9360
:10020000CF93DF93482F80E0683128F088EE860F87
:10021000813608F080E6C42FD0E06CE00E94FE0832
:10022000682F70E05AE0459F90011124F901E80F12
:10023000F11DEE0FFF1FE050FF4F00811181FB0108
:100240003196E20FF31FEE0FFF1FE050FF4F2081AA
:100250003181201B310B929FB001939F700D1124AF
:10026000CB016CE070E00E941809060F171FB8015F
:10027000812F880F880B982F10318CF06FEF7FE063
:10028000CC0FDD1FCE58DE4F79836883842F0E9408
:10029000DC00DF91CF911F910F910C94FB0097FF31
:1002A000EFCF80E090E0BC01EBCF482FE82FF0E0EB
:1002B000EE0FFF1FEE58FE4F808191819B0177FF6B
:1002C00002C021583F4F220F232F221F330B280F2C
:1002D000391FB90180E090E070318105910514F07B
:1002E0006FEF7FE0842F0E94DC000C94FB000F93E3
:1002F0001F93CF93DF93FC018181803929F483819F
:10030000811158C080E88183DF91CF911F910F91B7
:10031000089580916F019091700150917101BC011D
:100320006F5F7F4F6C177D0769F4F901E50FF11DD1
:10033000EE0FFF1FE050FF4F808191810196918366
:10034000808363C0BC016E5F7F4F6C177D0759F4DB
:10035000F901E50FF11DEE0FFF1FE050FF4F808107
:1003600091810A96ECCFBC01615071096C177D0731
:1003700059F4F901E50FF11DEE0FFF1FE050FF4F9B
:10038000808191810197DBCF02978C179D07E9F55A
:10039000F901E50FF11DEE0FFF1FE050FF4F8081C7
:1003A00091810A97CCCF6081718177FF40C0118223
:1003B00010823DC04FEF460F423008F0A5CFE281DA
:1003C0008E2F8851990BEC01F0E0E831F1050CF427
:1003D000E8E18F0108511109C8016CE070E00E944A
:1003E00018099AE0499F90011124811192CFD7FDFD
:1003F00090CFCF016CE070E00E94180962506093CA
:10040000710100936F011093700180917101F901E6
:10041000E80FF11DEE0FFF1FE050FF4F608171816B
:1004200070310CF4C0CF6FEF7FE071836083F9010E
:10043000E80FF11DEE0FFF1FE050FF4F608171814B
:10044000842F0E94DC00DF91CF911F910F910C94BB
:10045000FB0048E250E064E070E080E091E00C9442
:100460006A0948E250E064E070E080E091E00C94BA
:1004700040091092C5008FE18093C400E0ECF0E0E9
:1004800080818D7F808386E08093C20080E98093A5
:10049000C1000895399A08953A9A3C9A089552985D
:1004A0005A9A08953D98459A08953B9A089584B1C3
:1004B0008F6284B985B1876085B9E4E6F0E0808118
:1004C0008B7F808381E58CBD0895E4E6F0E0808138
:1004D0008F7D808384B5826084BD85B5836085BD52
:1004E0008AEF87BDEEE6808182608083089520E1F7
:1004F000FC0111922A95E9F70895262F2695269555
:100500002695FC01E20FF11D677021E001C0220F6A
:100510006A95EAF78081822B80830895262F26959D
:1005200026952695FC01E20FF11D9DEF61FD97EFE9
:1005300060FF959562FD929580818923808308955F
:10054000AC01FC0170969FE0829181110DC02FEFEC
:10055000290F911102C0822F08959150F5CF990F64
:10056000990F990F292BF7CF490F511D97FD5A95D8
:10057000FA01308180E827E0432F482381F78695F0
:100580002150D0F7E8CF9C01FC0190E080818111DF
:100590000CC031969F5F9031C9F78FEF0895892F76
:1005A000880F880F880F822B0895290F311DF901BC
:1005B000308181E020E0432F482389F7880F2F5FA7
:1005C0002830C9F7EACFCDB7DEB7C454D1090FB68A
:1005D000F894DEBF0FBECDBF84E092E025969FAFBA
:1005E0008EAF259720E2EAE2F1E0DE0191960190DC
:1005F0000D922A95E1F723969FAF8EAF239780E265
:10060000EAE4F1E0DE01119601900D928A95E1F79E
:100610000E9439020E9457020E94DB000E944A0297
:100620000E9494060E944F020E9452020E945502AC
:100630000E9465020E944C028CE991E00E94C00871
:1006400081E991E00E941F0586E290E0909380018D
:1006500080937F0180E2809381018FE39CE9019781
:10066000F1F700C0000080E090E00E945009853A58
:1006700009F4ECC065EA80E090E00E9474090E94F1
:1006800029020E949B087894359903C081E08093E9
:100690009001E12CF12C670102E011E088274A99D2
:1006A000839581270E94B90680919001811509F4F4
:1006B000D2C09091900180919001FE01ED5BFF4FBF
:1006C000E90FF11D8150990B82959295907F9827A3
:1006D000807F9827629121E230E02C0F3D1F820F2E
:1006E000931F0E9453008091760190917701A09111
:1006F0007801B0917901892B8A2B8B2B11F1809194
:100700008C0190918D01A0918E01B0918F0140914B
:100710007601509177016091780170917901841B85
:10072000950BA60BB70B893E9340A105B10548F088
:10073000109276011092770110927801109279014F
:100740004198809186018115C9F0109286018091AF
:100750008C0190918D01A0918E01B0918F018093B9
:100760007B0190937C01A0937D01B0937E018091E9
:100770009001813009F0A3C000939001809187011E
:10078000811551F01092870110927B0110927C012B
:1007900010927D0110927E0180917B0190917C01ED
:1007A000A0917D01B0917E01892B8A2B8B2B19F1B1
:1007B00080918C0190918D01A0918E01B0918F015B
:1007C00040917B0150917C0160917D0170917E018F
:1007D000841B950BA60BB70B893B9B40A105B1056C
:1007E00050F010927B0110927C0110927D011092CA
:1007F0007E0110937A018CE991E00E94F308811147
:100800004DCF8CE991E00E94DE08682F81E991E0EC
:100810000E942405811509F441CF8091970181152B
:1008200049F0C0908C01D0908D01E0908E01F09045
:100830008F01439A80919001811509F45FC0609106
:10084000900187E991E00E94770128CF0E94310250
:100850000E94AD0818CF80917A018115A9F090917E
:100860007A0180917A01FE01EF5BFF4FE90FF11DE4
:100870008150990B82959295907F9827807F982739
:10088000629121E030E029CFC114D104E104F104E8
:1008900091F080918C0190918D01A0918E01B09189
:1008A0008F018C199D09AE09BF090697A105B105F5
:1008B00008F419CF4398E12CF12C670114CF8091F3
:1008C0009001823041F4109290010E9429020E940E
:1008D0009C06439853CF80917A01813019F400939C
:1008E0007A014CCF80917A01823029F410927A01FA
:1008F0000E949B08ECCF0E949C0640CF80917A0119
:10090000811539F060917A0187E991E00E945308DE
:10091000C5CE80919701811561F0909197018091EA
:100920002801981731F0909197018091290198132F
:10093000B5CE87E991E00E94E305B0CE1F920F92F9
:100940000FB60F9211242F933F934F935F936F93A2
:100950007F938F939F93AF93BF93EF93FF93609198
:10096000C6008CE991E00E94C908FF91EF91BF9108
:10097000AF919F918F917F916F915F914F913F9137
:100980002F910F900FBE0F901F9018951F920F92EE
:100990000FB60F9211242F933F934F935F936F9352
:1009A0007F938F939F93AF93BF93EF93FF93809128
:1009B0008C0190918D01A0918E01B0918F010196D3
:1009C000A11DB11D80938C0190938D01A0938E0188
:1009D000B0938F018FE791E00E94B100FF91EF91FA
:1009E000BF91AF919F918F917F916F915F914F9147
:1009F0003F912F910F900FBE0F901F90189587FF7A
:100A00000CC09CE0980F923040F0982F9B7F993F4C
:100A100021F0803F18F4807F089580E00895982F9A
:100A20009F7C903851F0982F9F7E903C31F091E060
:100A3000803E09F090E0892F089581E00895FC013F
:100A400014821582108208950F931F93CF93DF9322
:100A500000D00F92CDB7DEB78A839B83162FFC019F
:100A60008481811157C061830081802F0E94FF041F
:100A70000E940F05811549F017FD07C0EA81FB812F
:100A80000183128381E08483102F812F0E94FF0451
:100A9000803E39F0D8F4982F9F7E903811F0803B3B
:100AA00069F593E0EA81FB8195839481923068F146
:100AB000EA81FB8187831F701F5F16838281808795
:100AC00011861482158281E0828710C08D3F20F448
:100AD0008A3F10F4883F91F4EA81FB8117831682E4
:100AE0001086118681E08287148215820F900F9004
:100AF0000F90DF91CF911F910F910895EA81FB81B3
:100B000014821582108280E0F1CF9F5FEA81FB8121
:100B10009483F9CF67FF06C0683F09F442C0E8F547
:100B2000673F61F3EA81FB81E80FF11D1183EA81E0
:100B3000FB81F581F9834F2F4150550B8417150622
:100B4000ECF1EA81FB810181802F0E94FF04182FC4
:100B50000E940F05811519F0802F8F708F5FEA8139
:100B6000FB811783868382818087F98180E0F3305F
:100B700019F4EA81FB818381EA81FB8181871482F8
:100B8000158281E08287103B21F090F41F7E10389F
:100B900089F4EA81FB810083A9CF6D3F08F4693FA6
:100BA00009F2EA81FB8117831682108611868BCFAA
:100BB000103EEECFEA81FB81108298CF8F5FEA81F1
:100BC000FB818483A0CFCF93DF93EC0189818039AF
:100BD00089F44B81411160C080E88983909128019C
:100BE000809129016A8198134CC0862FDF91CF91A3
:100BF0000C9476078A3FE9F160F5803E09F465C000
:100C000048F4803B09F485C010F4803839F3DF9153
:100C1000CF910895883FD9F7809121028115B9F3CA
:100C2000809120028F5F809320028130C9F4419A25
:100C300080918C0190918D01A0918E01B0918F01D6
:100C40008093760190937701A0937801B093790116
:100C5000DECF8B3F91F08C3FD1F61092210202C083
:100C6000833011F44198D3CF863088F2109220025D
:100C7000CECF81E080932102F9CF81E080932102E1
:100C8000C6CF9091280181E02881291301C080E01E
:100C9000DF91CF910C94EA072091280180912901DE
:100CA0009A81281306C0642F892FDF91CF910C946D
:100CB000BD062091280181E03881321301C080E017
:100CC000692FDF91CF910C94260790912801809194
:100CD00029016B8120E8629FB00111242A81622BD7
:100CE00098130FC080E00E9437086B8180E8689FEE
:100CF000B00111248A81682B81E0DF91CF910C949F
:100D000037089091280181E028812913F6CF80E0EF
:100D1000F4CF809128019881981379CF6B818A81D3
:100D2000DF91CF910C94420882E292E00E94770218
:100D300082E392E00C94770282E292E00E947702D2
:100D400082E392E00E947702E7E4F2E08FEF808393
:100D50008183E9E4F2E08083818360E080E00E94A7
:100D6000FE0060E081E00E94FE0080E090E00C94D4
:100D7000EE0081708093430208950F931F93CF93E9
:100D8000DF93182F062F682F82E292E00E947D02E7
:100D900082E292E00E94A002C82F82E292E00E94CA
:100DA000C302D82FCF3F49F1809149028C1769F0D7
:100DB000C09349026C2F81E00E94FE0080914302A3
:100DC000811103C06C2F0E94FE006C2FCC0F770B9B
:100DD0001617170691F48091430281112AC0809161
:100DE0004202813041F420E2029FC00111240E949E
:100DF000EE000E94FB00429A449A809143028130A7
:100E000099F4DF3F89F0809147028D1731F0D0933C
:100E100047026D2F80E00E94FE008D2FDD0F990BA1
:100E20001817190609F4429ADF91CF911F910F917B
:100E30000895809142028130F9F620E2029FC001BC
:100E400011240E94EE000E94FB00D6CFFF920F9368
:100E50001F93CF93DF9300D000D0CDB7DEB7F82E2D
:100E600069834A83082F10E080E1F89E90011124E5
:100E70002E5D3D4F2B833C83C9010E947D028B81F7
:100E80009C810E94A0028B838F3F21F1F801E75BD8
:100E9000FD4F80819B81891729F09083692F8F2DC9
:100EA0000E94FE002B81822F220F990B3981381767
:100EB000190681F4F11018C080914202813049F482
:100EC0003A8120E2329FC00111240E94EE000E946C
:100ED000FB00429A0F900F900F900F90DF91CF91EF
:100EE0001F910F91FF900895449AF4CF1F93CF93D1
:100EF000DF93182F682F82E292E00E948E0282E236
:100F000092E00E94A002C82F82E292E00E94C302F7
:100F1000D82F80914302813069F4CD130BC0212F6B
:100F200030E080914702982F990F990B18171906F6
:100F300039F54498CF3FC1F1809149028C1769F08F
:100F4000C09349026C2F81E00E94FE008091430211
:100F5000811103C06C2F0E94FE00809143028130FA
:100F6000A9F5DF3F91F1809147028D1779F1D09378
:100F700047026D2F80E0DF91CF911F910C94FE000E
:100F800080914902082E001C00088217030691F682
:100F9000449880914202813069F680E090E00E949E
:100FA000EE000E94FB00C6CF44988091420281303F
:100FB00031F480E090E00E94EE000E94FB008091FE
:100FC00043028111CACF4298C8CF4298DF91CF9196
:100FD0001F9108950F931F93CF93DF9300D00F922B
:100FE000CDB7DEB78B83082F10E020E1829FC001D0
:100FF00011249C012E5D3D4F29833A83C9010E9433
:101000008E0289819A810E94A002682F8F3F89F009
:10101000F801E75BFD4F8081861709F160838B81C2
:101020000F900F900F90DF91CF911F910F910C9423
:10103000FE003B81311112C0429880914202813002
:1010400071F480E090E00E94EE000F900F900F90FE
:10105000DF91CF911F910F910C94FB0044980F905A
:101060000F900F90DF91CF911F910F9108957052C3
:10107000709346026093450260914502709146026A
:101080000C945501813071F46093440280914202C6
:10109000811108C020E2629FC00111240E94EE006D
:1010A0000C94FB000895CF93FC018181803931F5C8
:1010B000838181112AC080E88183613021F56281BA
:1010C00082E292E00E948E0282E292E00E94C302DB
:1010D0006CE00E940A09C92F82E292E00E94A002FD
:1010E0006CE00E940A09CF3F19F0CF5FC09328013E
:1010F0009F3F49F09F5F9093290105C0803B99F085
:1011000010F48038D1F2CF910895613031F46281CA
:1011100082E292E00E947D02D7CF6230A1F781E0A7
:1011200080934202F0CF8281813069F7623059F7B3
:1011300010924202E8CFE8E2F1E0808161818F7095
:101140006295607F682B82E090E00E945809609170
:10115000420283E090E00C94580982E090E00E9403
:101160005009982F9F70E8E2F1E0908382958F708C
:10117000818383E090E00E945009809342020895A9
:101180009C012C5F3F4FFC012283338320833183FA
:101190000895FC01A281B381CD01019682839383DE
:1011A0006C93CF018C579F4F2281338128173907C9
:1011B00020F080589109828393830895FC01A081D7
:1011C000B1819D012F5F3F4F208331838C91AF010F
:1011D0004C575F4F2417350728F09F012C5F3F4F76
:1011E000208331830895FC0181E042815381208175
:1011F00031814217530709F080E00895992778E07C
:10120000880F991F961708F0961B881F7A95C9F7C3
:101210008095089587FB082E062687FD819567FD3A
:1012200061950E94FE080EF4919507FC8195089542
:1012300097FB072E16F4009407D077FD09D00E9483
:101240002C0907FC05D03EF4909581959F4F089599
:10125000709561957F4F0895AA1BBB1B51E107C094
:10126000AA1FBB1FA617B70710F0A61BB70B881F36
:10127000991F5A95A9F780959095BC01CD010895C5
:10128000DC01CB01FC01F999FECF06C0F2BDE1BD46
:10129000F89A319600B40D9241505040B8F7089535
:1012A000F999FECF92BD81BDF89A992780B508952E
:1012B000262FF999FECF92BD81BDF89A019700B40F
:1012C000021639F01FBA20BD0FB6F894FA9AF99AAF
:1012D0000FBE0895DC01CB0103C02D910E9475095A
:1012E00041505040D0F70895262FF999FECF1FBAEC
:1012F00092BD81BD20BD0FB6F894FA9AF99A0FBE3F
:0813000001960895F894FFCF57
:0C1308004D435658000100010070000029
:1013140000000002000400060008000A000C000E91
:10132400FF0F000000000002000400060008000A8D
:10133400000C000EFF0F0000010128000000C00394
:101344000000000000000000000028000000C800A9
:10135400000028000000D002000028000000CC019A
:1013640000000000000000000000280000006400ED
:0A1374000000280000004001000006
:00000001FF
