:107000000C9434380C9446380C9446380C9446381A
:107010000C9446380C9446380C9446380C944638F8
:107020000C9446380C9446380C9446380C944638E8
:107030000C9446380C9446380C9446380C944638D8
:107040000C9446380C9446380C9446380C944638C8
:107050000C9446380C9446380C9446380C944638B8
:107060000C9446380C94463811241FBECFEFD8E05C
:10707000DEBFCDBF21E0A0E0B1E001C01D92AC3881
:10708000B207E1F70E9404390C94153C0C940038C7
:1070900087B1846187B988B18B7E88B9089588B13A
:1070A0008C6188B9089588B1837E88B908958091EC
:1070B0007A00806480937A0080917A0086FDFCCF0C
:1070C000809179000895F89410927A0010928100CE
:1070D0000E9453380E9448380FB6F894A8958091C2
:1070E0006000886180936000109260000FBEE0E055
:1070F000F0E00995FFCFCF93DF9300D000D0CDB75C
:10710000DEB789839A836B837C831092850010920B
:1071100084000E94573890918901911117C0909175
:107120008A018917D0F081E08093890180918400E1
:1071300090918500EB81FC818083918381E00F90A9
:107140000F900F900F90DF91CF91089590918B0148
:10715000981718F010928901E9CF809184009091DE
:10716000850029813A818217930798F280E0E7CF62
:10717000FF920F931F93CF93DF9300D000D0CDB732
:10718000DEB78B839C8300E010E0F12CBE016F5FC3
:107190007F4F80E797E10E947B3881110BC080E030
:1071A0000F900F900F900F90DF91CF911F910F9143
:1071B000FF90089549815A819A012E553140253812
:1071C000334068F721E04E3E524008F420E0002EA4
:1071D00001C0220F0A94EAF7F22A0F5F1F4F08300E
:1071E0001105A1F6EB81FC81F082DACF962728E029
:1071F000AC01880F991F57FF04C031E2832730E1AB
:1072000093272150A9F70895CDB7DEB7A7970FB6FA
:10721000F894DEBF0FBECDBF14BE0FB6F894A8958C
:1072200080916000886180936000109260000FBEC2
:10723000F8940E9448383D98459A3B9A0E945338EA
:107240003998419880917E00826080937E0081E62B
:1072500080937C0085E880937A001092800082E021
:107260008093810010928500109284002FEF39EFF7
:1072700040E0215030404040E1F700C0000080E68F
:1072800090E00E94FB3B8F3F91F4E0E0F0E08591BD
:10729000959101978E3F9F4F08F076C0359B74C043
:1072A00065EA80E690E00E94033C0E946338853ADC
:1072B00009F06AC0E0E0F0E08591959101978E3F7A
:1072C0009F4F08F061C086B1182F107285FDEDCF79
:1072D0000E944F386FEF83E690E00E94033C6FEF0F
:1072E00084E690E00E94033C6FEF85E690E00E9408
:1072F000033C359B02C01115C1F2A0ECCA2ED12C63
:107300000FEF10E00E945738801708F4082F181765
:1073100008F4182FF1E0CF1AD108A1F7812F801BB4
:10732000863058F386958695902F980F90938B0111
:10733000212F281B20938A010E945738402F410F8C
:107340005527551F9A013595279591E0821708F426
:1073500090E0909389010E9453383E015FEF651AD7
:10736000750A00E010E0BE016F5D7F4F80E395E796
:107370000E947B3881110AC00F5F003199F788B1F4
:1073800098E0892788B9EDCF11E0A2CF439A89A16F
:107390009AA19C01205A3109293C310528F41F3F4C
:1073A00009F01F5F00E0DFCF80389C40D0F214313D
:1073B000C0F2429ACE0187960E94B83881110EC061
:1073C0000E944F38FFEF29EF30E0F150204030406D
:1073D000E1F700C000000E945338C3CF1FA1CE01C7
:1073E00086960E94B838811559F3EEA0CE01859695
:1073F0000E94B838811521F34DA0CE0184960E94D9
:10740000B8388115E9F23CA041E23416C8F6612F84
:107410008FEF9FEF0E94F6386E2D0E94F638642D94
:107420000E94F638632D0E94F6388C0153018A2D94
:107430008619831508F481C0CE0183960E94B8385E
:10744000811509F4BDCFCE0181960E94B83881150F
:1074500009F4B6CF29A18BA1922F0817190709F0BB
:10746000AFCFF42C449A83E690E00E94FB3B8F3F21
:1074700079F46FA183E690E00E94033C6E2D84E6D0
:1074800090E00E94033C642D85E690E00E94033C5E
:107490008FA1803109F062C0FEE03F1262CF898186
:1074A0008D3409F05ECF8A81883509F05ACF8B81FF
:1074B000853509F056CF8C81813309F052CF2D816B
:1074C000213009F04ECF8E819F818093850190936A
:1074D0008601488559856A857B8540938101509353
:1074E000820160938301709384010197903708F0C3
:1074F00038CF10928701109288012093800162E4B6
:1075000080E690E00E94033C60E081E690E00E940B
:10751000033C60E082E690E00E94033C88B1846115
:1075200088B94FEF54E38CE0415050408040E1F780
:1075300000C0000088B18B7E25CF4501C5010E94A7
:10754000B838811509F43CCF5FEFA51AB50AF401EC
:107550006081C8010E94F6388C0169CF803209F041
:10756000A7C080918001811509F4FBCE809087012E
:10757000909088018E149F0409F0F3CE80918501CC
:10758000909186015C01EFE1AE0EB11C65E0B6940E
:10759000A7946A95E1F7EA14FB0408F0E2CE50E202
:1075A000F59E102DE59E002D1129112408171907AD
:1075B00008F0D7CE311409F4D4CE432C512C9801C5
:1075C000230D311D8217930708F4CBCEFFEFEF1A7E
:1075D000FF0AEA14FB0418F420E23212C2CEE02EB5
:1075E000E894E7F8E11008C040E850E06FEF70E081
:1075F00080E091E00E94F43BF12CA201B301C701AD
:1076000080509F4F0E94EB3B3FEF831A930A80927A
:107610008701909288014E0C5F1C40E8441651048B
:1076200024F48A149B0409F09CCE00784FB7F89498
:1076300083E0F80187BFE89507B600FCFDCFA0E026
:10764000B1E080E090E051E0FC01E00FF11F119605
:107650006C912E91362F090157BFE895112402969F
:1076600012968038910581F785E0F80187BFE8958B
:1076700007B600FCFDCF81E180935700E8954FBF2E
:10768000000F012F001F110B11950F5F1F4F602F6F
:1076900081E690E00E94033C612F82E690E00E9428
:1076A000033C0E944F388FEF9CE70197F1F791CE92
:1076B000803309F056CE80918001811509F451CEB6
:1076C00031104FCE0091850110918601C8014F966F
:1076D00025E0969587952A95E1F78E159F0509F087
:1076E00040CE80918701909188018E159F0509F009
:1076F00038CE0E944F38AFEFBFEFCD010C151D05FE
:1077000091F580959095A095B0954091810150910B
:1077100082016091830170918401481759076A07BB
:107720007B0709F03DC065EA80E690E00E94033CDB
:107730000E9453380E944F383FEF43ED50E33150E1
:1077400040405040E1F700C000000E945338F894D8
:1077500088E198E00FB6F894A895809360000FBE7A
:1077600090936000FFCFF6012491822728E0AC01BE
:10777000BD017695679557954795382FCA01DB016E
:1077800030FF08C0F0E28F27F3E89F27F8EBAF2720
:10779000FDEEBF27215059F72FEFC21AD20AAECF04
:1077A0000E945338109280010E944F388FE79AE16F
:1077B000E6E081509040E040E1F700C000000E9408
:1077C0005338FFE72AE136E0F15020403040E1F73E
:1077D00000C00000E9CFFB01DC0102C001900D9266
:1077E00041505040D8F70895DC0101C06D934150DD
:1077F0005040E0F70895F999FECF92BD81BDF89A07
:10780000992780B50895262FF999FECF92BD81BDA5
:10781000F89A019700B4021639F01FBA20BD0FB6CE
:0E782000F894FA9AF99A0FBE0895F894FFCFE3
:040000030000700089
:00000001FF
