:100000000C9434000C9451000C9451000C94510049
:100010000C9437120C9451000C9451000C94510024
:100020000C9451000C9451000C9451000C9451000C
:100030000C9451000C9451000C949B060C945100AC
:100040000C9451000C9451000C9473060C945100C4
:100050000C9451000C9451000C9451000C945100DC
:100060000C9451000C94510011241FBECFEFD8E026
:10007000DEBFCDBF11E0A0E0B1E0E6E7F6E202C0EE
:1000800005900D92AC36B107D9F724E0ACE6B1E0AB
:1000900001C01D92A332B207E1F70E9439030C940C
:1000A00033130C9400008F929F92AF92BF92CF9225
:1000B000DF92EF92FF92362FC090A801D090A90155
:1000C000E090AA01F090AB0120916C0140916D018C
:1000D00050916E0160916F01709170014C195D0932
:1000E0006E097F09A4E02A9FF0011124E80FF91F8F
:1000F00080809180A280B38084169506A606B706FC
:1001000010F520FF29C0439A20916C012F5F23171F
:1001100029F1322F30936C01E4E02E9F90011124DD
:10012000820F931FFC0180819181A281B3818C0D8C
:100130009D1DAE1DBF1D80936D0190936E01A09318
:100140006F01B0937001FF90EF90DF90CF90BF9060
:10015000AF909F908F9008954398D6CF20E030E0E5
:10016000D9CFFC01A081B1813C912281838194810E
:10017000880F991F322341E0311101C040E0842BE8
:10018000906E838394838115904F11F481E087836F
:100190003C9185819681880F991F232341E021118D
:1001A00040E0842B906E858396838115904F11F4E7
:1001B00081E08087089508952A98811569F080E983
:1001C0007F70782B7EBD0DB407FEFDCF6EBD0DB4E4
:1001D00007FEFDCF2A9A089580E1F2CF29989F70FB
:1001E00090619EBD0DB407FEFDCF8EBD0DB407FE20
:1001F000FDCF299A08952898289A08950F931F9360
:10020000CF93DF93482F80E0683128F088EE860F87
:10021000813608F080E6C42FD0E06CE00E949F1287
:10022000682F70E05AE0459F90011124F901E80F12
:10023000F11DEE0FFF1FE050FF4F00811181FB0108
:100240003196E20FF31FEE0FFF1FE050FF4F2081AA
:100250003181201B310B929FB001939F700D1124AF
:10026000CB016CE070E00E94B912060F171FB801B5
:10027000812F880F880B982F10318CF06FEF7FE063
:10028000CC0FDD1FCC58DE4F79836883842F0E940A
:10029000DC00DF91CF911F910F910C94FB0097FF31
:1002A000EFCF80E090E0BC01EBCF482FE82FF0E0EB
:1002B000EE0FFF1FEC58FE4F808191819B0177FF6D
:1002C00002C021583F4F220F232F221F330B280F2C
:1002D000391FB90180E090E070318105910514F07B
:1002E0006FEF7FE0842F0E94DC000C94FB000F93E3
:1002F0001F93CF93DF93FC018181803929F483819F
:10030000811158C080E88183DF91CF911F910F91B7
:100310000895809171019091720150917301BC0117
:100320006F5F7F4F6C177D0769F4F901E50FF11DD1
:10033000EE0FFF1FE050FF4F808191810196918366
:10034000808363C0BC016E5F7F4F6C177D0759F4DB
:10035000F901E50FF11DEE0FFF1FE050FF4F808107
:1003600091810A96ECCFBC01615071096C177D0731
:1003700059F4F901E50FF11DEE0FFF1FE050FF4F9B
:10038000808191810197DBCF02978C179D07E9F55A
:10039000F901E50FF11DEE0FFF1FE050FF4F8081C7
:1003A00091810A97CCCF6081718177FF40C0118223
:1003B00010823DC04FEF460F423008F0A5CFE281DA
:1003C0008E2F8851990BEC01F0E0E831F1050CF427
:1003D000E8E18F0108511109C8016CE070E00E944A
:1003E000B9129AE0499F90011124811192CFD7FD53
:1003F00090CFCF016CE070E00E94B9126250609320
:100400007301009371011093720180917301F901DE
:10041000E80FF11DEE0FFF1FE050FF4F608171816B
:1004200070310CF4C0CF6FEF7FE071836083F9010E
:10043000E80FF11DEE0FFF1FE050FF4F608171814B
:10044000842F0E94DC00DF91CF911F910F910C94BB
:10045000FB0048E250E064E070E080E091E00C9442
:100460001B1348E250E064E070E080E091E00C94FF
:10047000E1121092C5008FE18093C400E0ECF0E03F
:1004800080818D7F808386E08093C20080E98093A5
:10049000C10008953A9A3C9A089552985A9A08953C
:1004A0003D98459A08953B9A089584B18F6284B926
:1004B00085B1876085B9E4E6F0E080818B7F808339
:1004C00081E58CBD0895E4E6F0E080818F7D808336
:1004D00084B5826084BD85B5836085BD8AEF87BDA4
:1004E000EEE6808182608083089520E1FC01119214
:1004F0002A95E9F70895262F269526952695FC013D
:10050000E20FF11D677021E001C0220F6A95EAF742
:100510008081822B80830895262F26952695269507
:10052000FC01E20FF11D9DEF61FD97EF60FF9595D6
:1005300062FD92958081892380830895AC01FC013E
:1005400070969FE0829181110DC02FEF290F9111BC
:1005500002C0822F08959150F5CF990F990F990FEE
:10056000292BF7CF490F511D97FD5A95FA0130817C
:1005700080E827E0432F482381F786952150D0F764
:10058000E8CF9C01FC0190E0808181110CC0319684
:100590009F5F9031C9F78FEF0895892F880F880FDB
:1005A000880F822B0895290F311DF901308181E0D8
:1005B00020E0432F482389F7880F2F5F2830C9F7A1
:1005C000EACF811521F0439A80937F0108954398E3
:1005D000FBCF0E94C40F4091A8015091A9016091E6
:1005E000AA017091AB0149585E4F6F4F7F4F409306
:1005F0008001509381016093820170938301811186
:1006000002C00C94E10281E0FCCF42984498089526
:10061000CF93C82F80918A01811549F180E0C7FDF1
:1006200026C010928A0181E080938B01C0938C01D7
:1006300010928D010E940503439A2FEF84E694E007
:10064000215080409040E1F700C0000043982FEF18
:100650008DEE92E0215080409040E1F700C0000014
:1006600061E08C2F0E94CF0E0E94E90281E0CF91C1
:100670000895CDB7DEB7C454D1090FB6F894DEBFE4
:100680000FBECDBF84E092E025969FAF8EAF259739
:1006900020E2ECE2F1E0DE01919601900D922A95C4
:1006A000E1F723969FAF8EAF239780E2ECE4F1E071
:1006B000DE01119601900D928A95E1F70E943902B0
:1006C0000E9455020E94DB000E94BE110E942A086F
:1006D0000E94D70E0E944D020E9450020E945302B7
:1006E0000E9463020E944A0288EB91E00E948011FE
:1006F0008DEA91E00E94F40686E290E090939C01DE
:1007000080939B0180E280939D018FE39CE9019798
:10071000F1F700C0000080E090E00E94F112853AFD
:1007200009F497C165EA80E090E00E9425130E94D9
:1007300029020E94310A0E94490E0E94E902109289
:100740007801789421E020938A0110928B018FEF39
:1007500080938C0110928D018091A8019091A90144
:10076000A091AA01B091AB018053984FAF4FBF4FFA
:1007700080938E0190938F01A0939001B09391018B
:10078000429A449A359B2093AC0101E010E042E08C
:10079000F42E80918A01811509F460C10E942F1204
:1007A00088274A99839580270E944F080E94220F2C
:1007B0000E942D0E80918A018115D9F08091A801A7
:1007C0009091A901A091AA01B091AB0140918E0135
:1007D00050918F016091900170919101841B950B54
:1007E000A60BB70B32F010928A010E9405030E94FB
:1007F000E9028091AC01EE24E394811107C080915D
:10080000960191E0811101C090E0E92E809185016F
:100810008E2909F026C1409186015091870160918F
:10082000880170918901411551056105710509F42F
:1008300056C2359954C28091A8019091A901A09106
:10084000AA01B091AB01841B950BA60BB70B8034AA
:100850009F41A105B10508F442C20E94C40F982F20
:1008600080918401981729F060E00E94810F0E9416
:10087000F30D10928A010E940503109278010E94E4
:10088000050F83E0439A3FEF9AE623E03150904012
:100890002040E1F700C0000043983FEF9AE623E0D4
:1008A000315090402040E1F700C00000815051F7E6
:1008B0000E94E9020093850110929701109298011D
:1008C0001092990110929A0111E08091AC0181156A
:1008D00009F401C19091AC018091AC01FE01ED5B86
:1008E000FF4FE90FF11D8150990B82959295907FF2
:1008F0009827807F9827629121E230E02C0F3D1FDE
:10090000820F931F0E9453008091A201811581F1F3
:100910001092A2018091A8019091A901A091AA0131
:10092000B091AB018093970190939801A0939901A6
:10093000B0939A018091A8019091A901A091AA0178
:10094000B091AB018093860190938701A0938801B9
:10095000B0938901109285010E94C40F8093840195
:100960008091AC01813009F051C1F092AC0111E0ED
:100970008091A301811509F44EC01092A3018091CA
:10098000970190919801A0919901B0919A011097C7
:1009900090408040A1F08091A8019091A901A09180
:1009A000AA01B091AB0140919701509198016091DB
:1009B000990170919A01841B950BA60BB70B1E2908
:1009C000B9F440919701509198016091990170910B
:1009D0009A01452B462B472B59F0883B3BE0930768
:1009E000A105B10508F431C1009396010E94E90206
:1009F00010929701109298011092990110929A0109
:100A0000109286011092870110928801109289013C
:100A10001092850110E088EB91E00E94B3118111E2
:100A2000B8CE88EB91E00E949E11682F8DEA91E08C
:100A30000E94F906811509F4ACCE8091AC018115B4
:100A400009F42DC16091AC0183EB91E00E94770124
:100A5000A0CE0E9431020E94430A6DCE0E94EE1188
:100A60009FCE111131CFE11030CF8091970190913D
:100A70009801A0919901B0919A01892B8A2B8B2B17
:100A800041F186B1182F107285FD23C08091A80115
:100A90009091A901A091AA01B091AB014091970159
:100AA000509198016091990170919A018C5B9240EC
:100AB000A109B109841B950BA60BB70B8C3F98407D
:100AC000A105B10508F001CF0E94C70F0E94E902FD
:100AD000F3CE10E0FACE809196018115A9F09091A5
:100AE000960180919601FE01EF5BFF4FE90FF11D2A
:100AF0008150990B82959295907F9827807F9827B7
:100B0000629121E030E0FACE80917801811509F4FC
:100B100043C08091A8019091A901A091AA01B09130
:100B2000AB0140917B0150917C0160917D017091FE
:100B30007E01841B950BA60BB70B0AF4E5CE8091C2
:100B40007901811105C0109278010E94E902DCCE82
:100B500090917A0121E0911120E020937A01911186
:100B600019C0439A8150809379018091A801909196
:100B7000A901A091AA01B091AB018C599F4FAF4F31
:100B8000BF4F80937B0190937C01A0937D01B09334
:100B90007E01BACE4398E6CF0E94C40F813018F48C
:100BA0000E94E102B1CEE1F38091A8019091A901E8
:100BB000A091AA01B091AB014091800150918101B7
:100BC0006091820170918301841B950BA60BB70B7A
:100BD0000AF49ACE81E090917F01911180E00E9409
:100BE000E1028091A8019091A901A091AA01B09180
:100BF000AB0189589E4FAF4FBF4F809380019093B8
:100C00008101A0938201B09383017ECE8091AC01DB
:100C1000823049F41092AC010E9429020E943208ED
:100C20000E94E902A4CE80919601813019F4F092DD
:100C300096019DCE8091960110E0823009F098CE09
:100C4000109296010E94310AE9CF8C3B9240A10597
:100C5000B10508F0CDCE0E94D00F811509F4C8CEA1
:100C60000E94F70F0E94F40F91E0909378018F5F3C
:100C7000880F8093790110927A018091A801909158
:100C8000A901A091AA01B091AB0180937B0190933F
:100C90007C01A0937D01B0937E014398A9CE809101
:100CA0009601811539F06091960183EB91E00E94E5
:100CB000E9096FCD8091B301811561F09091B30185
:100CC00080912801981731F09091B301809129010A
:100CD00098135FCD83EB91E00E94B8075ACD1115B0
:100CE00009F4C3CEF1CD1F920F920FB60F921124CB
:100CF0002F933F934F935F936F937F938F939F9324
:100D0000AF93BF93EF93FF936091C60088EB91E0A0
:100D10000E948911FF91EF91BF91AF919F918F91A7
:100D20007F916F915F914F913F912F910F900FBEE7
:100D30000F901F9018951F920F920FB60F921124CB
:100D40002F933F934F935F936F937F938F939F93D3
:100D5000AF93BF93EF93FF938091A8019091A90166
:100D6000A091AA01B091AB010196A11DB11D809384
:100D7000A8019093A901A093AA01B093AB018BE9BC
:100D800091E00E94B100FF91EF91BF91AF919F91CF
:100D90008F917F916F915F914F913F912F910F9024
:100DA0000FBE0F901F90189587FF0CC09CE0980F06
:100DB000923040F0982F9B7F993F21F0803F18F4AC
:100DC000807F089580E00895982F9F7C903851F09F
:100DD000982F9F7E903C31F091E0803E09F090E0AA
:100DE000892F089581E00895FC01148215821082F4
:100DF00008950F931F93CF93DF9300D00F92CDB739
:100E0000DEB78A839B83162FFC018481811157C032
:100E100061830081802F0E94D4060E94E406811520
:100E200049F017FD07C0EA81FB810183128381E04D
:100E30008483102F812F0E94D406803E39F0D8F48D
:100E4000982F9F7E903811F0803B69F593E0EA81FE
:100E5000FB8195839481923068F1EA81FB818783DD
:100E60001F701F5F1683828180871186148215820E
:100E700081E0828710C08D3F20F48A3F10F4883FC4
:100E800091F4EA81FB81178316821086118681E036
:100E90008287148215820F900F900F90DF91CF916F
:100EA0001F910F910895EA81FB81148215821082AF
:100EB00080E0F1CF9F5FEA81FB819483F9CF67FFE8
:100EC00006C0683F09F442C0E8F5673F61F3EA8174
:100ED000FB81E80FF11D1183EA81FB81F581F98324
:100EE0004F2F4150550B84171506ECF1EA81FB8119
:100EF0000181802F0E94D406182F0E94E4068115DC
:100F000019F0802F8F708F5FEA81FB8117838683B2
:100F100082818087F98180E0F33019F4EA81FB81D6
:100F20008381EA81FB8181871482158281E0828737
:100F3000103B21F090F41F7E103889F4EA81FB8188
:100F40000083A9CF6D3F08F4693F09F2EA81FB8174
:100F500017831682108611868BCF103EEECFEA8162
:100F6000FB81108298CF8F5FEA81FB818483A0CFC1
:100F7000CF93DF93EC018981803951F48B8181110A
:100F800035C080E88983CE01DF91CF910C940410A5
:100F90008A3F11F1D0F4803E71F148F4803B09F4AE
:100FA0004EC010F4803879F3DF91CF910895883FD7
:100FB000D9F780913D028115B9F380913C028F5F92
:100FC000863068F480933C02EFCF8B3F59F08C3F22
:100FD00059F710923D02E8CF81E080933D021092D4
:100FE0003C02E2CF81E080933D02DECFCE01DF9173
:100FF000CF910C94AE1090912801809129016B81C2
:1010000020E8629FB00111242A81622B98130FC03F
:1010100080E00E94CD096B8180E8689FB0011124B7
:101020008A81682B81E0DF91CF910C94CD0990915A
:10103000280181E028812913F6CF80E0F4CF809148
:10104000280198819813B0CF6B818A81DF91CF916D
:101050000C94D8098EE392E00E9475028EE492E02F
:101060000C9475028EE392E00E9475028EE492E089
:101070000E947502E3E6F2E08FEF80838183E5E66C
:10108000F2E08083818360E080E00E94FE0060E007
:1010900081E00E94FE0080E090E00C94EE00817000
:1010A00080935F0208950F931F93CF93DF93182FC0
:1010B000062F682F8EE392E00E947B028EE392E07F
:1010C0000E949E02C82F8EE392E00E94C102D82F98
:1010D000CF3F49F1809165028C1769F0C09365029A
:1010E0006C2F81E00E94FE0080915F02811103C09D
:1010F0006C2F0E94FE006C2FCC0F770B1617170673
:1011000091F480915F0281112AC080915E0281304A
:1011100041F420E2029FC00111240E94EE000E94CF
:10112000FB00429A449A80915F02813099F4DF3F3C
:1011300089F0809163028D1731F0D09363026D2F97
:1011400080E00E94FE008D2FDD0F990B1817190605
:1011500009F4429ADF91CF911F910F9108958091E8
:101160005E028130F9F620E2029FC00111240E9444
:10117000EE000E94FB00D6CFFF920F931F93CF93F8
:10118000DF9300D000D0CDB7DEB7F82E69834A8355
:10119000082F10E080E1F89E90011124225C3D4F61
:1011A0002B833C83C9010E947B028B819C810E941E
:1011B0009E028B838F3F21F1F801EB59FD4F808117
:1011C0009B81891729F09083692F8F2D0E94FE0043
:1011D0002B81822F220F990B39813817190681F440
:1011E000F11018C080915E02813049F43A8120E20A
:1011F000329FC00111240E94EE000E94FB00429A1F
:101200000F900F900F900F90DF91CF911F910F9142
:10121000FF900895449AF4CF1F93CF93DF93182F34
:10122000682F8EE392E00E948C028EE392E00E948F
:101230009E02C82F8EE392E00E94C102D82F8091B7
:101240005F02813069F4CD130BC0212F30E0809113
:101250006302982F990F990B1817190639F54498BE
:10126000CF3FC1F1809165028C1769F0C093650290
:101270006C2F81E00E94FE0080915F02811103C00B
:101280006C2F0E94FE0080915F028130A9F5DF3F44
:1012900091F1809163028D1779F1D09363026D2FE4
:1012A00080E0DF91CF911F910C94FE008091650248
:1012B000082E001C00088217030691F644988091BE
:1012C0005E02813069F680E090E00E94EE000E94AC
:1012D000FB00C6CF449880915E02813031F480E0FB
:1012E00090E00E94EE000E94FB0080915F0281115D
:1012F000CACF4298C8CF4298DF91CF911F910895ED
:101300000F931F93CF93DF9300D00F92CDB7DEB72B
:101310008B83082F10E020E1829FC00111249C01E3
:10132000225C3D4F29833A83C9010E948C02898146
:101330009A810E949E02682F8F3F89F0F801EB5935
:10134000FD4F8081861709F160838B810F900F908C
:101350000F90DF91CF911F910F910C94FE003B8174
:10136000311112C0429880915E02813071F480E0A8
:1013700090E00E94EE000F900F900F90DF91CF91C0
:101380001F910F910C94FB0044980F900F900F90B9
:10139000DF91CF911F910F91089570527093620267
:1013A0006093610260916102709162020C94550138
:1013B000813071F46093600280915E02811108C0F7
:1013C00020E2629FC00111240E94EE000C94FB00F9
:1013D0000895CF93FC018181803931F5838181119A
:1013E0002AC080E88183613021F562818EE392E03A
:1013F0000E948C028EE392E00E94C1026CE00E9487
:10140000AB12C92F8EE392E00E949E026CE00E9414
:10141000AB12CF3F19F0CF5FC09328019F3F49F037
:101420009F5F9093290105C0803B99F010F48038AC
:10143000D1F2CF910895613031F462818EE392E070
:101440000E947B02D7CF6230A1F781E080935E02D9
:10145000F0CF8281813069F7623059F710925E02D5
:10146000E8CFE8E2F1E0808161818F706295607F72
:10147000682B82E090E00E94091360915E0283E095
:1014800090E00C94091382E090E00E94F112982FF2
:101490009F70E8E2F1E0908382958F70818383E012
:1014A00090E00E94F11280935E02089588274A9B83
:1014B000839508959DE0899FF0011124DF01AC58C8
:1014C000BD4F9FEF9D9391E09C9381110FC087EAE0
:1014D000EC58FD4F82831382148215821682178284
:1014E0001086118612861386148608958DE5F0CF36
:1014F00080E8E3E9F3E0DF01982F1D929A95E9F780
:10150000E3E1F3E0DF011D928A95E9F71092920280
:10151000109291020895CF93DF93D82FC62F67FFC3
:1015200002C080E01FC0E62FF0E0ED56FC4F808146
:101530008115B9F380919002813098F3B1F40E9443
:10154000560A811108C081E090912B01D13049F7F2
:10155000C91740F4E6CF81E090912B01D111E1CF82
:10156000C917F8F6DF91CF9108950E94560A8111AC
:1015700006C090912B0181E0D111EACFF1CFE3E9D0
:10158000F3E020E080E09081911519F0C81731F068
:101590002F5F31968F5F8038B1F7C3CF2F3F09F2AD
:1015A0008091920290E0019696958795982F81E020
:1015B000D11102C02917D5CF2917CBCFCF93DF93F5
:1015C00000D00F92CDB7DEB789831B821A826A8161
:1015D00089810E948B0A9B81980F9B838A818F5FF0
:1015E0008A838038A1F7892F0F900F900F90DF9199
:1015F000CF910895CF93DF9300D0CDB7DEB7898325
:101600001A826A8189810E948B0A811107C08A81AE
:101610008F5F8A838038A9F78FEF8A838A810F9042
:101620000F90DF91CF910895EF92FF921F93CF9388
:10163000DF9300D00F92CDB7DEB789836F3FE1F023
:10164000862F90E001968A839B83EA80FB8080E866
:10165000E816F104A0F010E08A81181711F0103894
:10166000C9F41FEF812F0F900F900F90DF91CF9152
:101670001F91FF90EF9008951A821B82E6CF1E2DD6
:101680006E2D89810E948B0A8111ECCF9FEFE91AA0
:10169000F90ADDCF612F89810E948B0A8111E2CF87
:1016A0001F5FDACFEF92FF920F931F93CF93DF93D9
:1016B00000D0CDB7DEB789830FE710E06F3F21F090
:1016C000862F8150990B8C010A838A818F3F81F488
:1016D0008FE7E82EF12C0E151F05A4F08A810F90DC
:1016E0000F90DF91CF911F910F91FF90EF90089590
:1016F0006A8189810E948B0A8111F0CF9A81915071
:101700009A83E3CF6E2D89810E948B0A811104C0D8
:1017100091E0E91AF108DFCFEA82E0CFBC0120E0D6
:1017200030E080E047E090E0233021F0FB01E20F61
:10173000F31F9081892798E0582F880F57FD842741
:101740009150D1F72F5F3F4F2031310561F7089558
:1017500081E080936B028091A8019091A901A091F2
:10176000AA01B091AB018053984FAF4FBF4F809308
:10177000670290936802A0936902B0936A02089589
:10178000813011F44498089542980895CF93DF93DF
:101790000F92CDB7DEB789830E94C00B99818DE08F
:1017A000989FF0011124EC58FD4F138214828FEFA3
:1017B00080830F90DF91CF91089580E00E94C60B47
:1017C00081E00C94C60B813011F4449A0895429A3A
:1017D0000895BF92CF92DF92EF92FF920F931F93E3
:1017E000CF93DF93C82F0E94DE0A813060F4DFEFD1
:1017F0008D2FDF91CF911F910F91FF90EF90DF9090
:10180000CF90BF90089561F48C2FDF91CF911F91FD
:101810000F91FF90EF90DF90CF90BF900C94FA0A59
:1018200020918F02223009F464C0B0F43DE0C39FE0
:10183000C001112421114DC08C589D4FFC016081C5
:101840008C2FDF91CF911F910F91FF90EF90DF9040
:10185000CF90BF900C94140B233009F47AC024303D
:1018600031F63DE0C39FF0011124EC58FD4FD081CB
:101870008C2F0E94DE0A811509F4B9CFB090910235
:10188000E3E9F2E010E0DF3F09F0B3C010E083E9E4
:10189000C82E82E0D82E812F90E0FC01ED56FD4F3E
:1018A0007F01012F0B1508F4A7C000E0011709F410
:1018B000ABCF0B1509F4A8CFF601D0816D2F8C2F7B
:1018C0000E948B0A811194CFFFEFCF1ADF0A0F5FBE
:1018D000EDCF8C589D4FFC0160818C2FDF91CF9113
:1018E0001F910F91FF90EF90DF90CF90BF900C94DD
:1018F000520B8C2F0E94DE0A823008F485CFFDE067
:10190000CF9FC00111249C012C583D4F7901F90152
:1019100010811F3F19F481E0818376CF8181612F8F
:10192000811559F08C2F0E94140BD82F181708F42A
:101930005FCFF7011182612FD0CF8C2F0E94520B05
:10194000D82F811708F454CF81E0F7018183612FEC
:1019500077CF8C2F0E94DE0AD82F813008F447CF32
:1019600009F452CFFDE0CF9F80011124F801EC581B
:10197000FD4FF0802FEFF21629F06F2D8C2F0E9473
:101980008B0AD81BF801EC58FD4F8281982F990FD4
:10199000990F990F8927982F929596959770892777
:1019A000982F990F8917D9F08927F801EC58FD4F26
:1019B00082836D2F0E949F12092FDFEF10E0612FAD
:1019C0008C2F0E948B0A811531F0F11621F0011540
:1019D00001F10150D12F1F5F103889F709CF87EA35
:1019E000C11519F38DE5E1CF81911F5FD81709F477
:1019F0004ECF1B11F9CF4ACFF701D0816D2F8C2F1D
:101A00000E948B0A8111F4CEFFEFEF1AFF0A0F5FDD
:101A100049CFD12FEDCECF9380919002813081F5C7
:101A20000E94560AC82F80912B0190E06FE770E06A
:101A3000C1111AC0811569F0282F2150330BB9014B
:101A4000FB01ED56FC4F8081811113C0615071097B
:101A5000B8F7CF910C94C00BFB01ED56FC4F2081E1
:101A6000211107C06150710968177907ACF78C2FF5
:101A7000F0CF8C2F0E94FE008C2FCF910C94E30BA3
:101A8000CF9108950E94DD0B80E00E945A0A81E008
:101A90000E945A0A80919002813011F40C940B0D2F
:101AA0000895FC019091280180912901981304C0A8
:101AB000638182810C9453089091280181E02081F8
:101AC000291301C080E0438162810C94BC081F93FC
:101AD000CF93DF9300D000D00F92CDB7DEB70E9436
:101AE000320880E98A8310E080919102181748F04B
:101AF0000F900F900F900F900F90DF91CF911F914B
:101B00000895E12FF0E0ED56FD4F3081832F90E0F6
:101B1000FC01ED56FC4F2081211559F08D5E9C4F44
:101B2000FC01808189833B832C83CE0101960E9436
:101B3000510D1F5FD9CF0F931F93CF93DF93182FB2
:101B4000062F0E94C00B602F812F0E94FE008DE0A7
:101B5000189FF00111249F012C583D4FD9010C937F
:101B60008091A8019091A901A091AA01B091AB0127
:101B70000296A11DB11DE9018D839E83AF83B887B5
:101B800000916C0210916D0220916E0230916F02F3
:101B9000011511052105310509F1A801B901769555
:101BA000679557954795003111052105310520F4BA
:101BB00048E050E060E070E0EC58FD4F840F951F66
:101BC000A61FB71F81879287A387B48781E083838D
:101BD0001482DF91CF911F910F91089542E350E05D
:101BE00060E070E0E9CFCF93DF93CDB7DEB76097C9
:101BF0000FB6F894DEBF0FBECDBF88E5898381E0C4
:101C00008A8380E18B831C82809190028D838091F6
:101C10008F028E8380912B018F831886FE01399667
:101C200088E0DF011D928A95E9F7CE0101960E94B6
:101C30008E0B8C8340E150E060E470E0CE010196B1
:101C40000E94F91210926B0260960FB6F894DEBFF4
:101C50000FBECDBFDF91CF91089580916B028115AA
:101C6000B9F08091A8019091A901A091AA01B09129
:101C7000AB014091670250916802609169027091D6
:101C80006A02841B950BA60BB70B12F00C94F30D94
:101C90000895FF920F931F93CF93DF93CDB7DEB7D5
:101CA00062970FB6F894DEBF0FBECDBF40E150E0A3
:101CB00060E470E0CE0101960E94E11289818835CE
:101CC00051F58A81813039F58B81803121F51C8174
:101CD000CE0101960E948E0B18131DC02D8123305A
:101CE000D0F49E819530B8F48F8187FD14C0209385
:101CF000900290938F0280932B0110926B02629658
:101D00000FB6F894DEBF0FBECDBFDF91CF911F910C
:101D10000F91FF90089580E590E00E94F112F82E57
:101D200083E590E00E94F112898B84E590E00E94A7
:101D3000F112082F85E590E00E94F112182F86E538
:101D400090E00E94F1128A8B88EBF8120FC081E5B7
:101D500090E00E94F112F82E82E590E00E94F112CC
:101D60009F2D9095981302C0F7FE02C084E2F82ED2
:101D7000F0922B019989953879F4802F812795EA83
:101D800089279A89891308C0033030F4153020F46C
:101D90000093900210938F020E94F30DAECF87FD47
:101DA00005C080932B0161110C94F30D08950E94DE
:101DB000780A1092700210927102109272021092C0
:101DC000730210926C0210926D0210926E021092C9
:101DD0006F021092900210928F0210928E02109257
:101DE0006B021092670210926802109269021092C0
:101DF0006A0287EA809376028DE58093830280E011
:101E00000E945A0A81E00C945A0A429844980E940F
:101E100032080E94780A80E00E945A0A81E00E94FB
:101E20005A0A10927002109271021092720210926D
:101E3000730210926C0210926D0210926E02109258
:101E40006F0208951F93CF93DF930E94560A9091DB
:101E50002A019F3FD1F580932A018091900281153C
:101E600009F44BC0C4E7D2E010E08B818115D9F1B1
:101E70008091A8019091A901A091AA01B091AB0114
:101E80004D815E816F817885841B950BA60BB70B06
:101E900052F1812F0E94E30B1B8281E08C838091A1
:101EA000A8019091A901A091AA01B091AB01498527
:101EB0005A856B857C85841B950BA60BB70BB2F0FE
:101EC000812F0E94C00B1C8211C0981731F2909193
:101ED000900280932A01911103C00E94670DBDCF2B
:101EE0000E94420DBACF8C818111D9CF81E0810F40
:101EF0002D9611E0823009F0B8CFDF91CF911F917C
:101F00000895CF93DF9300D0CDB7DEB78A8369837E
:101F10008330A8F5809190029A81891781F10E94FF
:101F2000DD0B0E94320880E00E945A0A81E00E9484
:101F30005A0A10927002109271021092720210925C
:101F4000730210926C0210926D0210926E02109247
:101F50006F028A818093900281110BC00E94670DED
:101F60008981811561F00F900F90DF91CF910C94D2
:101F7000A80B9A819130A1F70E940B0DF1CF0F9021
:101F80000F90DF91CF9108958091900208958091F4
:101F900090028F5F833008F080E061E00C94810F45
:101FA00081E090919002911101C080E00895853008
:101FB000D0F490918F029817B1F080938F020E9415
:101FC000420D1092700210927102109272021092E1
:101FD000730210926C0210926D0210926E021092B7
:101FE0006F020C94A80B089580918F020895809140
:101FF0009002811541F080918F028F5F853008F04B
:1020000080E00C94D70F0895CF93DF93DC01892BE8
:1020100009F47FC01296CC911297C7FD7AC08C2F1D
:1020200090E0FC01ED56FC4F2081211541F110821A
:102030008D5E9C4FFC0110822091910243E952E099
:1020400090E09217A9F0FA018191AF01E1E0E90F68
:10205000C8132EC0F0E0BF016D567D4F492F50E0F0
:102060004D565D4F9F5F9217E0F0215020939102F3
:1020700080919202811519F0815080939202809193
:102080009002813010F512966C9112979091280170
:102090008091290198130EC0862FDF91CF910C9467
:1020A0000C09FB018191BF01FA018193AF01DACFE5
:1020B0009E2FC7CF9091280181E02C91291301C058
:1020C00080E0DF91CF910C94800931F50E94560A8F
:1020D00090912B01811113C0C91720F4DF91CF918A
:1020E0000C940B0D81E00E945A0A81E00E94DE0AE6
:1020F00081110FC081E0DF91CF910C94C60BC917FD
:1021000068F780E00E945A0A80E00E94DE0A81158A
:1021100091F3DF91CF9108950E94560A811110C06A
:10212000D1E080912B01C81708F4D0E08D2F0E94D8
:102130005A0A8D2F0E94DE0A8111EBCF8D2FDBCF43
:1021400080E00E945A0A81E00E945A0A809192021D
:102150008111DFCFDF91CF910C94DD0B0F931F9393
:10216000CF938C01009709F45FC0FC01C281C7FDC9
:102170005BC08381811106C0C801CF911F910F916F
:102180000C9404108C2F0E9408038C2F90E0DC012B
:10219000AD56BC4F2C91211111C0209192022F5F9E
:1021A00020939202E0919102E7FD08C021E02E0FFA
:1021B00020939102F0E0ED56FD4FC083F80123819A
:1021C0002C9320818D5E9C4FFC0120838091900296
:1021D000811106C0C801CF911F910F910C94510D30
:1021E00010912B01813079F40E94560A811107C0A9
:1021F000C117C0F4CF911F910F910C940B0DC11713
:10220000C8F780E007C00E94560A811108C081E02B
:10221000C117B8F3CF911F910F910C945A0A80E027
:102220000E945A0A81E0F6CFCF911F910F91089535
:102230000F931F938091A8019091A901A091AA01E9
:10224000B091AB01409170025091710260917202A5
:1022500070917302411551056105710599F08C016A
:102260009D01041B150B260B370B84179507A6073A
:10227000B70741F000936C0210936D0220936E0239
:1022800030936F028093700290937102A093720258
:10229000B093730280919002813078F1E9F40E944A
:1022A0000B0D0E94560A81110AC081E00E94E90BC1
:1022B0008F3F01F581E01F910F910C94C60B80E0D8
:1022C0000E94E90B8F3F11F480E0F5CF682F80E08A
:1022D0001F910F910C949B0D80E00E94E90B8F3FA2
:1022E00021F480E00E94C60BE0CF682F80E00E94BE
:1022F0009B0DDBCF682F81E0EBCF1F910F910895ED
:102300009C012C5F3F4FFC01228333832083318368
:102310000895FC01A281B381CD010196828393834C
:102320006C93CF018C579F4F228133812817390737
:1023300020F080589109828393830895FC01A08145
:10234000B1819D012F5F3F4F208331838C91AF017D
:102350004C575F4F2417350728F09F012C5F3F4FE4
:10236000208331830895FC0181E0428153812081E3
:1023700031814217530709F080E008953998419858
:1023800088273199839580931D0410921F04109221
:102390002004109221041092220410921E04109224
:1023A000190410921A0410921B0410921C0410922B
:1023B000180410921404109215041092160410922E
:1023C000170410921304D99AECE6F0E08081826041
:1023D0008083E8E68081826080830895CF938FB701
:1023E000F894C0911E0410921E048FBFC115D1F045
:1023F0008091A8019091A901A091AA01B091AB018F
:102400004996A11DB11D8093140490931504A093C7
:102410001604B093170481E0809313040E941811EE
:10242000C150E1F7809113048115B9F08091A801A2
:102430009091A901A091AA01B091AB01409114041F
:10244000509115046091160470911704841B950B2C
:10245000A60BB70B12F010921304CF9108959FB7FB
:10246000F89480911E0410921E049FBF08951F923D
:102470001FB61F9211242F933F934F935F936F9337
:102480007F938F939F93AF93BF9386B181FB222756
:1024900020F981FF44C080911D04811140C08091CA
:1024A000A8019091A901A091AA01B091AB0130912E
:1024B0001804311569F04091190450911A04609183
:1024C0001B0470911C04481759076A077B0739F1F0
:1024D0008093190490931A04A0931B04B0931C04D6
:1024E00081E08093180480911F0490912004A091B2
:1024F0002104B09122040196A11DB11D80931F04F7
:1025000090932004A0932104B093220480911E0490
:102510008F3F29F080911E048F5F80931E042093CB
:102520001D04BF91AF919F918F917F916F915F91AA
:102530004F913F912F911F901FBE1F901895992783
:1025400078E0880F991F961708F0961B881F7A95D8
:10255000C9F78095089587FB082E062687FD81958B
:1025600067FD61950E949F120EF4919507FC81957D
:10257000089597FB072E16F4009407D077FD09D035
:102580000E94CD1207FC05D03EF4909581959F4F97
:102590000895709561957F4F0895AA1BBB1B51E16B
:1025A00007C0AA1FBB1FA617B70710F0A61BB70BC3
:1025B000881F991F5A95A9F780959095BC01CD0168
:1025C0000895DC01CB01FC01F999FECF06C0F2BDF4
:1025D000E1BDF89A319600B40D9241505040B8F7E1
:1025E0000895F999FECF92BD81BDF89A992780B5DB
:1025F0000895DC01A40FB51F4150504048F0CB01B5
:10260000840F951F2E910E940A1341505040D0F71D
:102610000895262FF999FECF92BD81BDF89A0197B2
:1026200000B4021639F01FBA20BD0FB6F894FA9A1A
:10263000F99A0FBE0895DC01CB0103C02D910E94D1
:10264000261341505040D0F70895262FF999FECF18
:102650001FBA92BD81BD20BD0FB6F894FA9AF99ABF
:0A2660000FBE01960895F894FFCF15
:0C266A004D4356580100000100700000B4
:1026760000000002000400060008000A000C000E1C
:10268600FF0F000000000002000400060008000A18
:10269600000C000EFF0F00000101FF2428000000BF
:1026A600C003000000000000000000002800000039
:1026B600C800000028000000D0020000280000002A
:1026C600CC0100000000000000000000280000000F
:0C26D6006400000028000000400100002B
:00000001FF
